:020000040800F2
:100000009807002079020008790300087B030008A4
:100010007F03000883030008870300080000000036
:100020000000000000000000000000008B0300083A
:100030008D030008000000008F03000891030008F2
:10004000930200089302000893020008930200083C
:100050009302000893020008930200083D0B000879
:10006000930200089302000893020008930200081C
:10007000930200089302000893020008930200080C
:10008000DD120008930200089302000893020008A2
:1000900093020008930200089302000893020008EC
:1000A00093020008930200089302000893020008DC
:1000B00093020008930200089302000893020008CC
:1000C00093020008930200089302000893020008BC
:1000D00093020008D70800087B120008930200086A
:1000E000930200089302000893020008930200089C
:1000F000930200089302000893020008930200088C
:10010000930200089302000893020008930200087B
:10011000930200089302000893020008930200086B
:10012000930200089302000893020008930200085B
:1001300000F002F800F090F80AA090E8000C824469
:100140008344AAF10107DA4501D100F085F8AFF246
:10015000090EBAE80F0013F0010F18BFFB1A43F0A5
:1001600001031847743E0000943E0000103A24BF7B
:1001700078C878C1FAD8520724BF30C830C144BF0C
:1001800004680C607047000000230024002500264E
:10019000103A28BF78C1FBD8520728BF30C148BFEA
:1001A0000B6070476E2902F08782702902F0D083BD
:1001B000662903F0A386652903F0A086672903F06A
:1001C0009D866129AFF3008003681B0A28BF41F0B8
:1001D0008001692902F03482642902F03182752994
:1001E00002F02E826F2902F05B83782902F09C8353
:1001F000E92902F0F382E42902F0F082F52902F005
:10020000ED82EF2902F05883F82902F09B830368FE
:10021000DB0928BF41F08001632902F0268773299A
:1002200002F02B87E32902F03687F32902F03B879F
:10023000002070471FB502F087FF04000020002156
:1002400003F06EFC401C60600020002103F052FCB3
:10025000E0601FBD10B510BD02F049FF1146FFF769
:10026000E9FF00F061F803F025F803B4FFF7F2FFAF
:1002700003BC02F0E7F8000009488047094800473E
:10028000FEE7FEE7FEE7FEE7FEE7FEE7FEE7FEE746
:10029000FEE7FEE704480549054A064B70470000A3
:1002A000710400083101000898010020980700201F
:1002B00098030020980300201D481E4908601E482E
:1002C0004860022088811C4888600120C8811B4842
:1002D0001B490860022008811848486001204881B5
:1002E000E8208874174818490860704710B5FFF770
:1002F000E3FF02F0A1F802F037F800F039FB0D48F7
:1003000000F087FA012804D110A10A4800F04AF948
:1003100003E013A1074800F045F9142002F060F84B
:10032000094800F066FF10BDFFF7E0FF00BFFEE7E1
:10033000003801403000002000140140001C014042
:10034000B000002000440040C80000204843303581
:1003500020436F6E6E65637465642E2E2E0D0A0049
:100360004843303520446973636F6E6E656374650E
:10037000642E2E2E0D0A0000704700BFFEE700BF5E
:10038000FEE700BFFEE700BFFEE77047704770471B
:10039000704700000CB50020019000906B48006889
:1003A00040F480306949086000BF6848006800F484
:1003B000003000900198401C0190009818B90198F5
:1003C000B0F5A06FF1D16148006810F4003F02D091
:1003D0000120009001E0002000900098012842D107
:1003E0005B48006840F01000594908600846006802
:1003F00020F0030008600846006840F00200086032
:10040000524840685149486008464068486008467C
:10041000406840F4806048600846406820F47C10E2
:1004200048600846406840F4E810486008460068A4
:1004300040F08070086000BF4448006810F0007F02
:10044000FAD04248406820F003004049486008461E
:10045000406840F00200486000BF3C48406800F03F
:100460000C000828F9D10CBD10B5FFF793FF10BDA3
:1004700010B53648006840F001003449086008466D
:1004800040683449084031494860084600683249AC
:1004900008402E4908600846006820F48020086063
:1004A0000846406820F4FE0048604FF41F00886052
:1004B000FFF7DAFF4FF000602849086010BD10B563
:1004C000002100200022214B5B6803F00C0121B1C8
:1004D000042906D0082928D107E0214B214C2360AC
:1004E00027E01F4B1F4C236023E0184B5B6803F48D
:1004F0007010164B5B6803F48032022303EB9040CC
:1005000022B9194B4343174C23600DE00F4B5B6836
:1005100013F4003F04D0144B4343124C236003E018
:100520000F4B43430F4C236003E00D4B0D4C2360F6
:1005300000BF00BF054B5B68C3F303130B4CE15CCA
:10054000084B1B68CB40074C236010BD00100240D5
:10055000002002400000FFF8FFFFF6FE08ED00E07B
:1005600000127A000000002000093D000400002075
:1005700000BF02695268002AFBD100BF02681288DE
:1005800012F0400FFAD00269126822F001020369EA
:100590001A60026951600269126842F0010203693F
:1005A0001A6070470FB438B5044606A8009004F1ED
:1005B0001C00009A059901F0A9FF0020009004F1A9
:1005C0001C0001F0B5FF85B229462046FFF7D0FF99
:1005D00038BC5DF814FB10B58CB004460121084608
:1005E00001F049FC052001F0D8FE206900F084FFED
:1005F0002068001D019004F11C000290102003905F
:100600003220049000200590802006900020079062
:10061000089009904FF400500A9000200B9001A917
:10062000206901F00BF8606900F066FF2068001D8A
:10063000019004F14E0002900020039032200490BB
:1006400000200590802006900020079008900990D7
:100650004FF440500A9000200B9001A9606900F00F
:10066000EDFF0CB010BD38B50546B648854201D146
:10067000252408E0B448854201D1262403E0B3488C
:10068000854200D12724E0B28DF8000001208DF8CA
:10069000010000208DF8020001208DF8030068465B
:1006A00000F0C1FE38BD2DE9F04186B00446884611
:1006B000A448844203D1A64F451506150CE0A24874
:1006C000844203D1A24F0425082605E09F488442B6
:1006D00002D1A04F0515C6149A48844208D10121C1
:1006E000880301F0D5FB0121042001F0D1FB16E0C5
:1006F0009548844208D10121480401F0D6FB01212C
:10070000042001F0C5FB0AE09048844207D1012192
:10071000880401F0CAFB0121082001F0B9FB204642
:1007200001F01EFCADF8145003208DF816001820BF
:100730008DF8170005A9384601F0F4F8ADF81460FB
:1007400004208DF8170005A9384601F0EBF8CDF824
:1007500004800020ADF80800ADF80A00ADF80C00E8
:10076000ADF810000C20ADF80E0001A9204601F0F4
:100770003AFC002240F22661204601F0CCFC002227
:1007800040F22551204601F0C6FC012240F22441EE
:10079000204601F0C0FC0121204601F0B0FC2046BB
:1007A000FFF761FF4021204601F091FD06B0BDE852
:1007B000F08138B504464FF484326168891A8A0A98
:1007C000042101FA02F0012101F062FB4FF48432AE
:1007D000A168891A8A0A042101FA02F0012101F0B4
:1007E00057FBA089ADF8000010208DF8030003200E
:1007F0008DF802006946606801F094F8E089ADF870
:10080000000048208DF803006946A06801F08AF8CE
:1008100038BD70B504460A26002060764949206834
:10082000884205D14C4820614B481430606114E087
:1008300045492068884206D147483C3020614648F7
:100840002830606109E041492068884205D142486A
:10085000283820614048143860612046FFF7A9FF1E
:100860004FF461312068FFF71EFF012280212068CC
:1008700001F076FC01224021206801F071FC204645
:10088000FFF7A9FE0021206900F018FF1CE00120FD
:10089000324908604FF00A0001F0A2FD30A1204665
:1008A000FFF780FE00203049C1F88401002509E0EF
:1008B000607E012801D1607E70BD0A2001F090FDAC
:1008C000681CC5B20A2DF3DB3000A6F10101CEB2DF
:1008D000DDD100BFF0E710B5002400202349488394
:1008E00040F22441174801F0FBFC50B300211A48A4
:1008F000143000F0CEFE13480488001D048816480A
:10090000143000F0DDFEC0F132001849488308467B
:10091000408B04280BD1084690F84E004F2806D192
:10092000084690F84F004B2801D10120487632212B
:100930000948143000F0C2FE01210748143000F0CD
:10094000A8FE10BD003801400044004000480040AF
:1009500000080140000C0140440002408481224212
:1009600041540D0A000000000080224230000020A7
:1009700008B50121402001F08BFA4FF48070ADF8EA
:10098000000010208DF8030003208DF80200694656
:10099000174800F0C7FF4FF48071154801F06DF85B
:1009A0004FF48060ADF8000010208DF803000320A4
:1009B0008DF8020069460E4800F0B4FF4FF48061E4
:1009C0000B4801F05AF84FF48050ADF800001020A9
:1009D0008DF8030003208DF802006946044800F0FA
:1009E000A1FF4FF48051024801F047F808BD000014
:1009F0000018014070B504460D46002600F0B8F915
:100A0000204600F06CFA00BF00F0F5F90028FBD199
:100A1000284600F064FA00BF00F0EDF90028FBD191
:100A200000F0A6F9611CC8B200F059FA00BF00F04E
:100A3000E2F90028FBD1322001F0AFFC002000F0E9
:100A40007EFA064600F0B6F9304670BD3EB5044663
:100A50000121084601F01CFAA17B207B01F076F809
:100A60002089019000208DF8080008208DF80900E9
:100A700001208DF80A0001A800F074FEA07B801D03
:100A8000C0B28DF8000000208DF801008DF8020042
:100A900001208DF80300684600F0C5FC5F4800683F
:100AA000A27B0121914088435C4908603EBD70B53E
:100AB0000446204600F0B8F82046FFF7C7FF0020A4
:100AC0002074A07C0021FFF795FF0546A07C012142
:100AD000FFF790FF06461F2E03D10E2D01D10120F6
:100AE0002074207C70BD4E49096821F0F0014C4A09
:100AF00011601146096841F0800111600221484AE5
:100B0000143211604549096841F00201434A1160FD
:100B1000704710B50446A07C0221FFF76BFFA0824E
:100B2000A08A4FF6FF7101EA0020A082A07C032179
:100B3000FFF760FFA18A0844A08210BD10B5022013
:100B400000F087FE3548006820F002003349086055
:100B50003348006820F0F00031490860084600681A
:100B600040F0300008602F48FFF7D3FF01202D49E7
:100B7000487410BD70B506460C46154600F0F8F8EE
:100B8000304600F0ACF900BF00F035F90028FBD189
:100B9000204600F0A4F900BF00F02DF90028FBD199
:100BA000284600F09CF900BF00F025F90028FBD191
:100BB00000F000F970BD70B504460D460020607469
:100BC000A07C2A460221FFF7D5FF2046FFF78BFFC6
:100BD00070BD70B505460C469A2202212846FFF7E3
:100BE000C9FF012001F0FCFB922202212846FFF7F9
:100BF000C1FF012001F0F4FB9E2202212846FFF7ED
:100C0000B9FF012001F0ECFB224602212846FFF744
:100C1000B1FF642001F0E4FB70BD0000000401405E
:100C2000001C0140B000002038B504464FF4843267
:100C30002168891A8A0A042101FA02F0012101F0CF
:100C400027F94FF484326168891A8A0A042101FA6B
:100C500002F0012101F01CF94FF484312068401AA0
:100C6000C0F3872020732089B0F5807F43D012DC49
:100C7000102834D008DC012825D0022826D00428EA
:100C800027D008284FD127E020282BD040282CD06F
:100C9000802848D12CE0B0F5805F38D009DCB0F571
:100CA000007F2BD0B0F5806F2BD0B0F5006F3AD11C
:100CB0002AE0B0F5005F2DD0B0F5804F2DD0B0F513
:100CC000004F30D12CE00020E0812DE00120E081B8
:100CD0002AE00220E08127E00320E08124E00420D4
:100CE000E08121E00520E0811EE00620E0811BE09C
:100CF0000720E08118E00820E08115E00920E0816C
:100D000012E00A20E0810FE00B20E0810CE00C20D3
:100D1000E08109E00D20E08106E00E20E08103E0A3
:100D20000F20E08100E000BF00BF2089ADF8000087
:100D300010208DF8030003208DF80200694620681A
:100D400000F0F0FD2189206800F097FE6089ADF881
:100D5000000010208DF8030003208DF80200694682
:100D6000606800F0DFFD6189606800F086FE38BDD4
:100D700010B58B48006820F00F00894908600846CC
:100D8000006840F003000860012086490860864939
:100D9000C1F884014FF00A0001F0FFFA00208149F8
:100DA00008604FF00A0001F0F8FA00207E49C1F80F
:100DB000840110BD10B57A48006820F00F00784912
:100DC00008600846006840F003000860002077498A
:100DD00008607549C1F880014FF00A0001F0DDFAA2
:100DE0000120724908607049C1F880014FF00A0083
:100DF00001F0D3FA10BD10B500246948006820F056
:100E00000F00674908600846006840F00800086065
:100E10000120644908604FF0060001F0BEFA01208D
:100E20006149C1F88401062001F0B7FA07E0601CAF
:100E3000C4B2FA2C03DDFFF7BDFF012010BD5C48F2
:100E400000680028F3D15949086000BFF6E710B5E3
:100E50000020564908605248006820F00F005049B1
:100E600008600846006840F0030008604FF000008A
:100E70004D49C1F880014FF00A0001F08EFA0120BF
:100E80004A4908604FF00A0001F087FA00204649FD
:100E9000C1F8840110BD10B50020444908604048E5
:100EA000006820F00F003E4908600846006840F0E6
:100EB000030008604FF001003B49C1F880014FF08A
:100EC0000A0001F06AFA0120384908604FF00A0070
:100ED00001F063FA00203449C1F8840110BD70B5F7
:100EE00004462F48006820F00F002D49086008468E
:100EF000006840F00300086000202C4908600546A7
:100F00001AE0E009274908604FEA44604FEA10649C
:100F10004FF00A0001F041FA01202349C1F8840191
:100F20000A2001F03AFA0020204908604FF00A0038
:100F300001F033FA681CC5B2082DE2DB70BD70B554
:100F4000054600241648006820F00F001449086088
:100F50000846006840F008000860002616E00020FF
:100F6000124908604FF00A0001F017FA01200E49FB
:100F7000C1F884016006040E0D48006808B1601CC9
:100F8000C4B2052001F009FA701CC6B2082EE6DBD7
:100F900015B9FFF780FF01E0FFF759FF204670BD4C
:100FA000001C01408081234200802342848123422F
:100FB0000081234238B50546FE48854201D10F2401
:100FC0000AE0FC481430854201D1102404E0F948BD
:100FD0002838854200D10D24E0B28DF800000120B0
:100FE0008DF8010002208DF8020001208DF8030029
:100FF000684600F018FA38BD10B58CB004460121DF
:10100000084600F038FF052001F0C7F9606800F0DD
:1010100073FA2068001D019004F10C00029010206A
:101020000390052004900020059080200690002069
:101030000790089009904FF440500A9000200B90C0
:1010400001A9606800F0FAFAA06800F055FA20687B
:10105000001D019004F11100029000200390362041
:1010600004900020059080200690002007900890B2
:1010700009904FF400500A9000200B9001A9A0683D
:1010800000F0DCFA01220221A06800F00EFBA0684B
:10109000FFF790FF0021606800F010FB0021A068BE
:1010A00000F00CFB0CB010BD38B50546C2488542B7
:1010B00001D1252408E0C148854201D1262403E05E
:1010C000BF48854200D12724E0B28DF800000020FF
:1010D0008DF8010001208DF802008DF803006846AC
:1010E00000F0A1F938BD2DE9F04186B004468846EC
:1010F000B148844203D1B34F451506150CE0AF4803
:10110000844203D1AF4F0425082605E0AC48844251
:1011100002D1AD4F0515C614A748844208D101215C
:10112000880300F0B5FE0121042000F0B1FE16E0B6
:10113000A248844208D10121480400F0B6FE0121F2
:10114000042000F0A5FE0AE09D48844207D1012159
:10115000880400F0AAFE0121082000F099FE204634
:1011600000F0FEFEADF8145003208DF81600182094
:101170008DF8170005A9384600F0D4FBADF81460CF
:1011800004208DF8170005A9384600F0CBFBCDF8F8
:1011900004800020ADF80800ADF80A00ADF80C009E
:1011A000ADF810000C20ADF80E0001A9204600F0AB
:1011B0001AFF002240F22661204600F0ACFF012217
:1011C00040F22551204600F0A6FF002240F22441C3
:1011D000204600F0A0FF0121204600F090FF2046AD
:1011E000FFF762FF4021204601F071F806B0BDE82C
:1011F000F08110B5044670492068884205D16D48D9
:10120000143860606B48A06014E06C492068884224
:1012100006D168482830606066481430A06009E054
:1012200067492068884205D162483C38606061485F
:101230002838A0604FF4E1312068FFF754FF012205
:101240008021206800F08CFF01224021206800F0FE
:1012500087FF2046FFF7D0FE10BD8168096821F0A6
:1012600001018268116036218268516081680968D5
:1012700041F0010182681160704710B540F22551BC
:101280004E4801F02DF840B350480068808850491E
:10129000504A127888544F48007848B90846007878
:1012A000552805D14B480078401C4A49087014E085
:1012B00048480078012810D145484078512809D184
:1012C00042490022086840F2255100F024FF3F48BF
:1012D000FFF7C3FF00203F49087010BD2DE9FF5FF5
:1012E0004FF4001000F00EFA012861D1374908468A
:1012F000D0F812200A65C08AA1F854005631A1F135
:101300004500C2680A60008A888056390846826AA9
:10131000CA65808DA1F86000B1F9600002F00AFD95
:101320004FF08E41039002F043FC83462A4902F0BD
:1013300019FD824602F010FC04460D462349B1F91E
:101340005E0002F0F7FC4FF08E41039002F030FC9B
:101350008346214902F006FD824602F0FDFB064667
:101360000F461A49B1F95C0002F0E4FC4FF08E41DF
:10137000039002F01DFC8346174902F0F3FC8246FD
:1013800002F0EAFB804642460B4614A11B48CDE919
:101390000067CDE90245FFF705F90C49012208680D
:1013A00040F2255100F0B7FE08488068006827E049
:1013B0002FE0000058000240003801400044004087
:1013C0000048004000080140000C0140C800002017
:1013D000140000201600002000003443416E670D09
:1013E0000A526F773D2566202050697463683D2559
:1013F0006620205961773D25660D0A0030000020E7
:1014000020F001000449896808604FF4801000F062
:101410008CF9BDE8FF9F0000C8000020314901435E
:10142000314A1160704770B5002100230F22C47843
:101430000CB32D4C246804F4E064C4F5E064210A84
:10144000C1F10403CA40447804FA03F184781440DB
:1014500021430901254C0678A155047804F01F05A5
:101460000124AC4005786D114FF0E02606EB8505B0
:10147000C5F8004109E0047804F01F050124AC40E0
:101480001B4D0678761145F8264070BD194A0A4072
:101490000243154B1B1F1A60704739B1124A121DC7
:1014A00012680243104B1B1D1A6006E00E4A121D03
:1014B000126882430C4B1B1D1A607047042808D128
:1014C0004FF0E021096941F004014FF0E022116181
:1014D00007E04FF0E021096921F004014FF0E0221C
:1014E000116170470000FA050CED00E000E400E037
:1014F00080E100E080FFFF1F01684FF6FE7211409F
:1015000001600021016041608160C1608C498842B6
:1015100008D18B490839496841F00F01884A083AD7
:1015200051608AE086491431884208D184490839DB
:10153000496841F0F001824A083A51607DE08049F3
:101540002831884208D17E490839496841F47061E0
:101550007B4A083A516070E079493C31884208D1B1
:1015600077490839496841F47041754A083A516031
:1015700063E073495031884208D17149083949689C
:1015800041F470216E4A083A516056E06C4964316A
:10159000884208D16A490839496841F47001684AAB
:1015A000083A516049E066497831884208D1644977
:1015B0000839496841F07061614A083A51603CE07D
:1015C0006049884206D1011F096841F00F01021FDE
:1015D000116032E05B491431884208D15949091F32
:1015E000096841F0F001574A121F116025E0554982
:1015F0002831884208D15349091F096841F47061B4
:10160000504A121F116018E04E493C31884208D1FF
:101610004C49091F096841F470414A4A121F116080
:101620000BE048495031884207D14649091F0968F3
:1016300041F47021434A121F1160704710B5002217
:10164000026847F6F0739A430C6A8B6823430C696F
:1016500023434C6923438C692343CC6923434C6A5D
:1016600023438C6A23431A430260CB6843600B68B0
:1016700083604B68C36010BD0021016041608160E0
:10168000C160016141618161C16101624162816248
:10169000704721B1026842F00102026004E0026872
:1016A0004FF6FE731A40026070471AB103680B438D
:1016B000036002E003688B4303607047416070473A
:1016C0000146486880B2704701460020002211F0B0
:1016D000805F03D01B4B083B1A6802E0184B083BA5
:1016E0001A680A4201D0012000E00020704710F083
:1016F000805F03D01349091F086002E010490839D0
:101700004860704701460020002211F0805F03D03E
:101710000C4B083B1A6802E0094B083B1A680A4266
:1017200001D0012000E00020704710F0805F03D05E
:101730000449091F086002E0014908394860704700
:101740000800024008040240002044490860091DC6
:101750000860091D0860091D086041483F491431AF
:101760000860704700213D498279002A3AD00A4634
:10177000126803689A430B461A600A1D12680368D0
:101780009A430B1D1A60027911440A6803681A43D0
:101790000A60324A0832126803689A432F4B0833B2
:1017A0001A601A1D126803689A432C4B0C331A6096
:1017B0004279102A0ED11A1F126803681A43274B68
:1017C00008331A601A1D126803681A43234B0C333E
:1017D0001A600DE02149427911440A6803681A43EE
:1017E0000A6005E0027911440A6803689A430A60B6
:1017F00070470021016001710C214171002181714C
:1018000070471649103109680143144A10321160BB
:10181000704701460020114A143212680A4201D072
:10182000012000E0002070470C4914310860704727
:10183000014600200022094B1B6803EA0102074B06
:1018400014331B680B4202D00AB1012000E00020D3
:1018500070470249143108607047000000040140DD
:10186000FFFF0F0010B50446CA48844208D1012189
:10187000042000F027FB0021042000F023FB46E0B9
:10188000C548844208D10121082000F01BFB00213B
:10189000082000F017FB3AE0C048844208D101213B
:1018A000102000F00FFB0021102000F00BFB2EE0B9
:1018B000BB48844208D10121202000F003FB002115
:1018C000202000F0FFFA22E0B648844208D101212E
:1018D000402000F0F7FA0021402000F0F3FA16E073
:1018E000B148844208D10121802000F0EBFA0021A8
:1018F000802000F0E7FA0AE0AC48844207D10121D9
:10190000801500F0DFFA0021A01500F0DBFA10BD11
:1019100010B50121084600F0D5FA0021012000F0A1
:10192000D1FA10BD2DE9F041024600250026002025
:1019300000230024002791F803C00CF00F0591F854
:1019400003C01CF0100F03D091F802C04CEA05054B
:1019500091F800C0BCF1000F31D0146800202BE0DA
:101960004FF0010C0CFA00F3B1F800C00CEA0306CA
:101970009E4220D183004FF00F0C0CFA03F7BC43BA
:1019800005FA03FC4CEA040491F803C0BCF1280FEB
:1019900006D14FF0010C0CFA00FCC2F814C00AE0AA
:1019A00091F803C0BCF1480F05D14FF0010C0CFABF
:1019B00000FCC2F810C0401C0828D1D31460B1F854
:1019C00000C0BCF1FF0F34DD546800202EE000F1B0
:1019D000080C4FF0010808FA0CF3B1F800C00CEA4B
:1019E00003069E4221D183004FF00F0C0CFA03F73F
:1019F000BC4305FA03FC4CEA040491F803C0BCF1B3
:101A0000280F05D100F1080C08FA0CF8C2F8148070
:101A100091F803C0BCF1480F07D100F1080C4FF05A
:101A2000010808FA0CF8C2F81080401C0828CED330
:101A30005460BDE8F0814FF6FF7101800221817092
:101A40000421C17070470246002093680B4201D008
:101A5000012000E0002070470146886880B270478E
:101A600002460020D3680B4201D0012000E0002094
:101A700070470146C86880B2704701617047416194
:101A800070470AB1016100E041617047C160704771
:101A90004FF480320A438261816182618269826986
:101AA000704702460020424B18684FF6807318407A
:101AB00040EA021008433E4B186070473D49C86138
:101AC0007047F0B50A46002300240021002500F0ED
:101AD0000046B6F1004F02D1354EF16901E0344EB7
:101AE0007168C0F3034583B200F44016B6F5401F99
:101AF00008D121F070612E4E766826F070662C4F6A
:101B00007E6012E000F48016B6F5801F06D1032631
:101B100006FA05F4A14341F0706106E0460D360176
:101B200003FA06F6B14341F0706122B1460D360169
:101B300003FA06F6314300F00046B6F1004F02D139
:101B40001B4EF16101E01A4E7160F0BD30B500220C
:101B50008B071C0F0F2303FA04F2154B08338C106C
:101B600053F824309343124C08348D1044F8253038
:101B700023468C1053F824308C07240F00FA04F409
:101B800023430B4C08348D1044F8253030BD0A49EE
:101B90000860704700080140000C0140001001403F
:101BA0000014014000180140001C014000200140C9
:101BB0000000014000002042DC002042DD480068B7
:101BC00040F00100DB49086008464068DA490840F7
:101BD000D849486008460068D8490840D549086097
:101BE0000846006820F4802008600846406820F419
:101BF000FE0048604FF41F0088607047CD490968B7
:101C000021F48031CB4A11601146096821F480210A
:101C10001160B0F5803F03D0B0F5802F0ED106E003
:101C2000C449096841F48031C24A116007E0C149E2
:101C3000096841F4A021BF4A116000E000BF00BF65
:101C4000704710B501460022002300204A11012AE6
:101C500002D1B84C236806E0022A02D1B54C236AAF
:101C600001E0B44C636A01F01F02012494401C425D
:101C700001D0012000E0002010BD38B50020009008
:101C80000024002500BF3120FFF7DBFF0546009848
:101C9000401C00900098B0F5A06F01D0002DF2D04C
:101CA0003120FFF7CEFF08B1012400E000242046D8
:101CB00038BD014600209F4A106820F0F80040EA35
:101CC000C100106070479E490860704702460020BE
:101CD000984B586820F47C1042EA01031843954B56
:101CE0005860704796490866704701460020914A3F
:101CF000506820F003000843506070478D484068EA
:101D000000F00C007047014600208A4A506820F01D
:101D1000F00008435060704701460020854A506833
:101D200020F4E06008435060704701460020814A7B
:101D3000506820F4605040EAC1005060704729B1FB
:101D40007C4A527A02437B4B5A7204E0794A527AB7
:101D50008243784B5A7270477A490860704701464F
:101D60000020744A506820F4404008435060704797
:101D70000021754A11706F4A82F82010012802D0A4
:101D8000042808D103E001216F4A117004E0052105
:101D90006D4A117000E000BF00BF70476B490860DA
:101DA00070476449096A0143624A11627047674992
:101DB00044390860704730B5002100220024002318
:101DC0005C4D6D6805F00C0121B1042905D008298E
:101DD00023D105E05E4D056022E05D4D05601FE00A
:101DE000544D6D6805F47012524D6D6805F48034E1
:101DF000022505EB92421CB9564D554305600BE098
:101E00004C4D6D6815F4003F03D0524D55430560AD
:101E100002E04F4D5543056002E04D4D056000BFA7
:101E200000BF444D6D6805F0F00109094A4D6B5C37
:101E30000568DD4045603F4D6D6805F4E061090AC5
:101E4000454D6B5C4568DD4085603A4D6D6805F435
:101E50006051C90A404D6B5C4568DD40C560354D39
:101E60006D6805F44041890B3C4D6B5CC568B5FB62
:101E7000F3F5056130BD29B12E4A526902432D4B5D
:101E80005A6104E02B4A526982432A4B5A617047D7
:101E900029B1284A92690243264B9A6104E0254AF7
:101EA00092698243234B9A61704729B1214AD269D2
:101EB0000243204BDA6104E01E4AD26982431D4B83
:101EC000DA61704729B11B4AD2680243194BDA60C4
:101ED00004E0184AD2688243164BDA60704729B191
:101EE000144A12690243134B1A6104E0114A126941
:101EF0008243104B1A61704714494039086070479B
:101F00000F49C86470470B49C87170470948406A57
:101F100040F0807007494862704701460020054A3A
:101F200092680A4201D0012000E000207047014978
:101F300088727047001002400000FFF8FFFFF6FEB5
:101F400000004242D8004242201002408004424237
:101F500000127A0000093D00170000202700002031
:101F600010B50446FB48844209D101218803FFF7DC
:101F7000A9FF00214FF48040FFF7A4FF32E0F648AC
:101F8000844209D101214804FFF7A9FF00214FF441
:101F90000030FFF7A4FF25E0F048844209D1012179
:101FA0008804FFF79CFF00214FF48020FFF797FF84
:101FB00018E0EB48844209D10121C804FFF78FFFE4
:101FC00000214FF40020FFF78AFF0BE0E548844230
:101FD00008D101210805FFF782FF00214FF480108E
:101FE000FFF77DFF10BD2DE9F04786B005460E4690
:101FF0000024A24600BFA1460027B08900B100BF5F
:102000002F462C8A4CF6FF700440F08804432C8243
:10201000AC894EF6F3100440B088318908437189C9
:1020200008430443AC81AC8A4FF6FF400440B089BA
:102030000443AC8201A8FFF7BEFEC648874202D126
:10204000DDF810A001E0DDF80CA0A88910F4004F25
:1020500008D00AEBCA0000EB0A1031684900B0FB57
:10206000F1F807E00AEBCA0000EB0A1031688900BA
:10207000B0FBF1F86420B8FBF0F004012009642102
:1020800001FB1089A88910F4004F08D0322000EB22
:10209000C900B0FBF1F000F00700044308E0322073
:1020A00000EB09106421B0FBF1F000F00F000443D5
:1020B0002C8106B0BDE8F0874FF416510160002175
:1020C0008180C18001810C21418100218181704783
:1020D00010B502460020108A4FF2FF0318400B880B
:1020E0004C8823438C882343CC8823431843108295
:1020F00010BD0021018041808180C180704721B1E5
:10210000828942F40052828104E082894DF6FF7395
:102110001A4082817047F0B503460024002600254E
:102120000020A1F510676A3F00D100BF1846C1F337
:10213000421401F01F06012707FA06F5012C01D110
:102140000C3004E0022C01D1103000E014301AB140
:1021500007682F43076002E00768AF430760F0BDE0
:102160001AB1838A0B43838202E0838A8B43838282
:102170007047028A4FF6F0731A400282028A0A43BD
:102180000282704782894FF2FF731A4082818289EE
:102190000A438281704721B1828942F00202828122
:1021A00004E082894FF6FD731A4082817047028AEB
:1021B0004FF6DF731A400282028A0A430282704796
:1021C00021B1028A42F48042028204E0028A4BF684
:1021D000FF731A4002827047C1F308028280704781
:1021E00001468888C0F308007047818941F00101E9
:1021F00081817047028BD2B20283028B42EA0122B4
:1022000002837047028B02F47F420283028B0A43EF
:102210000283704721B1828A42F02002828204E068
:10222000828A4FF6DF731A408282704721B1828A18
:1022300042F01002828204E0828A4FF6EF731A4065
:102240008282704721B1828A42F00802828204E0D1
:10225000828A4FF6F7731A408282704721B18289D1
:1022600042F40042828103E08289C2F30E0282813D
:10227000704721B1828A42F40062828204E0828A3D
:102280004FF2FF731A4082827047828A4FF6FB73C7
:102290001A408282828A0A438282704721B1828AEE
:1022A00042F00202828204E0828A4FF6FD731A40F5
:1022B0008282704702460020B1F5007F00D100BF46
:1022C00013880B4201D0012000E00020704701F488
:1022D0000072B2F5007F00D100BFCA430280704790
:1022E00070B502460024002300250020A1F51066E9
:1022F0006A3E00D100BFC1F3421501F01F03012661
:1023000006FA03F3012D02D19689334006E0022D2F
:1023100002D1168A334001E0968A33400C1201261E
:1023200006FA04F41688344013B10CB1012000E021
:10233000002070BD10B500220023A1F510646A3C96
:1023400000D100BF0A1201249440A3B2DC430480F0
:1023500010BD00000038014000440040004800402B
:10236000004C00400050004010B56FF00400FFF733
:10237000A5F82D4800682D49B0FBF1F02C490870F4
:102380000846007800EB4001C1EBC0104FF6FF712A
:1023900001EAC0002749088010BD0146244A12788E
:1023A0004A434FF0E0235A6100229A611A461269AB
:1023B00042F001021A6100BF4FF0E022106910F0F4
:1023C000010F02D010F4803FF6D04FF0E0221269E6
:1023D00022F001024FF0E0231A6100229A61704757
:1023E0000146144A12884A434FF0E0235A61002202
:1023F0009A611A46126942F001021A6100BF4FF059
:10240000E022106910F0010F02D010F4803FF6D0E6
:102410004FF0E022126922F001024FF0E0231A612E
:1024200000229A61704700000000002000127A002C
:102430002C0000202E00002010B54FF4A060FEF705
:10244000EDFF10BD014600BF704700BF2C4A128847
:1024500012F0400FFAD0C2B2294B1B1D1A807047F0
:1024600010B586B00446012144F20400FFF710FDC8
:102470002348FFF775FD4FF40070ADF814000320FA
:102480008DF8160018208DF8170005A91D48FFF7D4
:1024900049FA4FF48060ADF8140004208DF817005D
:1024A00005A91848FFF73EFA25208DF80000032003
:1024B0008DF801008DF8020001208DF803006846B8
:1024C000FEF7B1FF01940020ADF80800ADF80A0056
:1024D000ADF80C00ADF810000C20ADF80E0001A90D
:1024E0000748FFF780FD012240F225510448FFF71D
:1024F00012FE01210248FFF702FE06B010BD0000E7
:102500000038014000080140704700001CB50C462F
:10251000064B7B4469460090204600F0E8F80446EC
:102520000020694600F0F6F820461CBDFF010000BF
:1025300010B5431C02E010F8011B71B18107FAD1FC
:102540004FF0013202C88C1A8C4314EAC211F9D040
:10255000C01A0A0603D0C01E10BDC01A10BD0A045E
:1025600001D0801E10BD0902FCD0401E10BD704776
:1025700070477047704770B5044685690068C106AA
:1025800001D5302600E02026C00708D070BDD4E970
:10259000012130469047206A00F1010020626D1E43
:1025A000F5D570BD70B5044685690078C00708D1BF
:1025B00070BDD4E9012120209047206A00F101007C
:1025C00020626D1EF5D570BD09684A0501D540B27F
:1025D0007047C905FCD500B2704709684A0501D5A6
:1025E000C0B27047C905FCD580B2704770B50C46C3
:1025F0000546012A05D02878800600D5EA6900231F
:1026000002E0012305E05B1C934202D2E05C00285B
:10261000F9D1A869E618C01AA861286A1844286286
:102620002846FFF7A8FF04E0D5E9012114F8010BC3
:102630009047B442F8D32846FFF7B4FF70BD0000BE
:102640002DE9F0410646002410687529314616A58B
:1026500011D0FFF7B9FF002803DAC0F1000013A57D
:1026600007E031688A0701D511A502E0490704D5C2
:1026700010A5012401E0FFF7B0FF00210A2306F1B5
:10268000240707E0B0FBF3F203FB1200303078546C
:102690001046491C0028F5D123462A463046BDE89D
:1026A000F04100F06CBA0000000000002D000000B6
:1026B0002B0000002000000011680268006A53052A
:1026C00001D508700BE0D30501D5088007E013069B
:1026D00003D5C217C1E9000201E0520608600120DB
:1026E0007047000001694A1C02610878704700B514
:1026F0008FB0CDE901310021059105497944CDE93B
:1027000003101146684600F02FF90FB000BD00001D
:10271000E5FFFFFF0A6802F8010B0A60704700003E
:102720002DE9FF5F15468A460446DFF8AC80F84481
:102730000027D8E900103E46CDE9001011E03AF834
:1027400016106A4602A800F0B2FC411C07D021789E
:10275000890603D5E269391891420ED8074406F17B
:1027600001062078800602D5E069B84205DDAE4258
:10277000E5DB3AF816000028E1D1A069C01BA06192
:102780002046FFF7F8FED8E90010CDE90010002040
:1027900016E03AF818106A4602A800F088FC814654
:1027A000401C0BD000250DF1080B05E0D4E90121F8
:1027B0001BF8050090476D1C4D45F7D308F101004B
:1027C000B0428046E5DB206A384420622046FFF7AD
:1027D000E9FEBDE8FF9F0000CE1700002DE9F041A3
:1027E0008046D21D22F007020025D2E90002F52919
:1027F00014A612D0002A06DA0023D0EB030063EB04
:10280000020211A608E0D8F800108B0701D50FA628
:1028100002E0490701D50EA601251146002408F162
:10282000240704E000F066F930323A55641C50EA9F
:102830000102F7D12B46324621464046BDE8F04121
:1028400000F09DB9000000002D0000002B000000EA
:102850002000000030B4002100F124040CE002F05C
:10286000070505F130054FEAD20242EA437265548A
:1028700001F101014FEAD30352EA0305EFD10468E5
:10288000002310A2250708D504F020040C4304D02F
:10289000C46901230CA2641EC46130BC00F06FB98E
:1028A00010B5044621461068FFF797FE0246204601
:1028B000BDE810400023CDE7D21D22F00701D1E989
:1028C0000023C7E70000000030000000F0B40D4610
:1028D0000188090502D5234C7C4402E0214C7C444C
:1028E0000E34002100F124060BE002F00F074FEA3E
:1028F0001212E75D42EA03724FEA1313775401F1B3
:10290000010152EA0307F0D102780023120704D52F
:10291000702D06D009B1113402232246F0BC00F01C
:102920002EB910340123F8E770B504460D46214650
:102930001068FFF752FE024629462046BDE8704067
:102940000023C3E7D21D22F00703D3E90023BDE72C
:102950000368126843F0200303600823C361002367
:10296000B4E700002C1600002DE9F05F894604460C
:102970004FF0000ADFF878B1FB44C0F820A02046F1
:10298000E1688847002875D0252806D0D4E90121C0
:102990009047206A401C2062F1E700265F462046EF
:1029A000E16888472028054608DB312D06D207EB71
:1029B000050010F8200C08B10643F0E7B00701D578
:1029C00026F00406C4F81CA00027C4F818A02A2D7D
:1029D00009D0284601F087F838B304EB8708303D6A
:1029E000C8F8185019E059F8041B204604EB870278
:1029F0009161E1688847012F054618D1E0690028F8
:102A000020DA26F020061DE0D8F8180000EB800040
:102A100005EB40003038C8F818002046E1688847C8
:102A2000054601F060F80028EED1012F0AD02E2DC6
:102A300008D12046E16888477F1C0546022F46F0F2
:102A40002006C4DBA069002803DA404246F00106F4
:102A5000A061F00701D026F010066C2D0BD0682D78
:102A600009D04C2D39D06A2D35D0742D35D07A2D22
:102A700033D016E038E0E1682F4620468847B84258
:102A8000054609D16C2F26D04FF48060E1680643DB
:102A900020468847054604E06C2F1AD04FF480701A
:102AA00006430DB3A5F14100192802D8203546F49C
:102AB00000664A462946204626604E46FDF772FBD0
:102AC00080B101280BD0F61D26F0070000F108099F
:102AD00055E74020E4E78020D8E70020D6E706F15C
:102AE00004094CE7284651E7206ABDE8F09F000042
:102AF000B415000030B5B0F10A024FEA900E71F142
:102B000000034EEA817EB0EB0E0061EB91014FEACB
:102B1000101E4EEA017E10EB0E0041EB11114FEA40
:102B2000102E4EEA016E10EB0E0041EB11214FEA20
:102B3000104E4EEA014E10EB0E0041EB11414018D1
:102B400041F100014FEAD00040EA41704FEAD10163
:102B500010EB80054FEA810444EA907444EB0104D1
:102B60006D1944EB0404521BA3414FF0000348BF0E
:102B70000A3200D530BD401C41F1000130BD2DE9C5
:102B8000F0470D4699469246044600F12408016834
:102B9000880604D5E06921F01001216000E00120E1
:102BA000A84202DDA0EB050700E00027A16907EBC2
:102BB000050202EB0900A1EB0000A0612078C0062D
:102BC00002D42046FFF7D7FC002608E0D4E9012113
:102BD0001AF806009047206A401C761C20624E4579
:102BE000F4DB2078C0060AD52046FFF7C4FC06E0D7
:102BF000D4E9012130209047206A401C2062381E11
:102C0000A7F10107F4DC07E0D4E9012118F8050079
:102C10009047206A401C2062281EA5F10105F3DCC4
:102C20002046FFF7BFFC2078000602D50220BDE851
:102C3000F0870120FBE770472DE9FF4F0C461E4649
:102C40004FF0FF378BB0D2E90001DDF860800A90C9
:102C50008A46C1F30A5505B93D46002108464FF0A2
:102C60000000BAF1000F00F4400005DA00EB80002C
:102C70004FF4400101EA50004FEA9059B9F1010FB9
:102C800000DDB9460A9850EA4A000ED044F61050CA
:102C9000A5F2FF3545432F14B8F1000F1ED0754241
:102CA000291E1EDDC9F100021CE0B8F1010F4FF032
:102CB000000001D0302103E0F24305E02154401C24
:102CC000B042FBDB30460022002121540B99C1F8B1
:102CD0000880C1E900200FB0BDE8F08FBD1B6D1C5E
:102CE000DEE74A4600DA694206A800F071FA06AB50
:102CF00007CB03AB07C350460A9900F025FB8DE8CC
:102D00000700A0F500501F3800900398002D09DD42
:102D100042F21F014A46084403A90390684600F0A6
:102D200084FD08E0A0F500504A461F3803A903902F
:102D3000684600F08EFD8DE807000004000C03D00B
:102D40004FF0FF30410800E01046B8F1000F03D00B
:102D50000022009215461FE0751E06D4FFF7CAFE3A
:102D600002F1300262556D1EF8D5B34601220843C8
:102D700002D000227F1C04E02078302801D10022FC
:102D80007F1E002A099787D01DE0112D07DAFFF773
:102D9000B1FE303262556D1C50EA0102F5D1084394
:102DA0000FD10021681E05E0235C625C6354491C5E
:102DB0002254401E8142F7DBAB46A81B401E0990FF
:102DC00001E0009848B1002004F80B000B98099A24
:102DD000C0F80880C0E9002B7DE711264FF00008FD
:102DE0005AE72DE9F04F88460446D21D22F007012C
:102DF00091B0D1E90001CDE90A0100F060FE024680
:102E00000B98C00F01D02D2007E02068810701D565
:102E10002B2002E0202101EAC000032A099001D002
:102E2000072A05DB03464146204600F091F90FE1F1
:102E30002078800601D5E06900E00620B8F1650F32
:102E4000814606D0B8F1660F18D0B8F1670F72D17D
:102E500032E00020B9F1110F009001DB112301E0F5
:102E600009F101030AAA01A90CA8FFF7E5FEDDE9B3
:102E70000C70002609F10105834648E001204B460D
:102E800000904FF000470AAA01A90CA8FFF7D4FE52
:102E9000DDE90DB00C995D46002618B909F1010075
:102EA00001EB0005B9EB050003D4C0F1FF3609F1D1
:102EB0000105A5EB09002BE0B9F1010F01DA4FF094
:102EC00001090020B9F1110F0090484601DD1123DE
:102ED00000E003460AAA01A90CA8FFF7ADFEDDE950
:102EE0000C704D4600268346207800070AD4AB4577
:102EF00000DA5D4601A8012D04DD411911F8011C1D
:102F0000302907D04F4502DA17F1040F04DA012007
:102F1000824610E06D1EEEE7002F02DCED1B3E4402
:102F200003E0781CA84200DD0546A7EB060000F18F
:102F3000010A4FF000472078000703D4AA4501DBBF
:102F40004FF0FF3A0021B7F1004F0DF143088DF823
:102F5000431023D002202B23002F01DA7F422D23A0
:102F60004FF00A0C011EA0F1010000DC4FB197FBED
:102F7000FCF10CFB11720F4602F1300208F8012D32
:102F8000F0E7A8F1010003702188090501D545216A
:102F900000E06521A0F1010800F8011C09980FA9C3
:102FA000A1EB080707F1070700B1012000EB0501BD
:102FB00001EBEA70A1693844A1EB0000A0F1010027
:102FC000A0612078C00602D42046FFF7D4FA099801
:102FD00030B1D4E901219047206A00F1010020625C
:102FE0002078C00620D52046FFF7C5FA1CE0002E49
:102FF00004DBB34502DD01A8805D00E03020D4E9A8
:1030000001219047206A761C401CBAF1010A206217
:103010000AD100F099F8C0680168405CD4E9012148
:103020009047206A401C2062281EA5F10105DEDCC5
:1030300007E0D4E9012118F8010B9047206A401CF1
:103040002062381EA7F10107F3DC2046FFF7AAFA39
:10305000022011B040E610B5436913B1AFF3008010
:1030600001E0FFF7C3FA012010BD127800F124013E
:103070000A7000224A700122EDE711684FF0FF321A
:10308000E9E710B5436913B1AFF3008001E0FFF742
:1030900047FB012010BD128800F124018284002228
:1030A000C2840122EDE711684FF0FF32E9E770B505
:1030B00016460C46054600F03FF8036893F80101F8
:1030C000012806D0FF2C0FD8185D68B101202C70A4
:1030D00070BDD3F807013246214603442846BDE8B7
:1030E000704003F2071318474FF0FF3070BD75466C
:1030F00000F0E6F8AE4605006946534620F00700AA
:10310000854618B020B5FDF7C5F8BDE820404FF062
:1031100000064FF000074FF000084FF0000B21F0C1
:103120000701AC46ACE8C009ACE8C009ACE8C0098E
:10313000ACE8C0098D46704710B500F005F8001DD9
:1031400010BD00BFDD090000004870475401002099
:103150002DE9F0411F46044603260168072A01F4C1
:10316000006004DB08B116A505E016A503E008B170
:1031700015A500E015A521F010002060A069C01E73
:10318000A0610FB1401EA0612046FFF7F4F94FB1D6
:10319000D4E9012138469047206A401C2062C01CB7
:1031A000206206E0206AFAE7D4E9012115F8010B54
:1031B0009047761EF8D22046FFF7F4F9BDE8F0817B
:1031C0004E414E006E616E00494E4600696E6600CB
:1031D0002DE9F047814616468AB035487844D0E953
:1031E000002380680092CDE90130314878440C38E2
:1031F000D0E90223006903924FF03702CDE9043091
:1032000041F69B30014491FBF2F0A0F1800502FBF6
:1032100010141B3C02D56442012000E00020DFF8BE
:1032200090A080460027FA44AAF1C60A0DE0E00704
:1032300009D03246684607EB47010AEB810100F0EE
:1032400008FB8DE8070064107F1C002CEFD1184F9D
:103250007F44B43F17E0E80713D007EB04100DF1EB
:10326000180A90E80E00AAE80E00C068F04201D1EA
:1032700098190890324606A903A800F0EAFA03ABB1
:1032800007C36D10641C002DE5D132466946B8F1C4
:10329000000F03A802D000F0C8FA01E000F0D9FA4C
:1032A000C9E90001C9F808200AB0BDE8F0870000AC
:1032B000E00D00000446AFF300802046FCF7D5FF88
:1032C00000487047340100204FF0013C50F8042BB7
:1032D00051F8043B9A4221D1A2EB0C03934313EA29
:1032E000CC1317D150F8042B51F8043B9A4215D156
:1032F000A2EB0C03934313EACC130BD150F8042B2D
:1033000051F8043B9A4209D1A2EB0C03934313EA10
:10331000CC13DBD04FF00000704700BFD01A01BAC9
:10332000B1FA81F101F0180122FA01F0CB40C1F1AC
:103330002001DBB2C0B2C01A2CFA01F3D11A9143BA
:1033400011EAC311E6D170475FEA400C08BF91F063
:10335000000F4FEA8C234FEAC12243EA51514FEA52
:103360001C5018BF00F5F0404FEA300018BF41F084
:1033700000415FEA6C5C00F02980BCF1FF3F08BFB0
:1033800040F080407047130C06BF12044FF0100C41
:103390004FF0000C130E04BF12020CF1080C130FB7
:1033A00004BF12010CF1040C930F04BF92000CF146
:1033B000020CD30F04BF52000CF1010C11464FF068
:1033C0000002A0F11F00A0EB0C00704711F0004FAD
:1033D00008BF704731F000413FF4D5AF0B0C06BF7A
:1033E00009044FF0100C4FF0000C0B0E04BF090243
:1033F0000CF1080C0B0F04BF09010CF1040C8B0F2E
:1034000004BF89000CF1020CCB0F04BF49000CF182
:10341000010CCCF12003A0EB0C0022FA03F302FA1A
:103420000CF241EA030100F10100704720F07F4CEB
:1034300080EA030023F07F47ACEB070303F57C53DE
:1034400000F0004003F1FF032DE980494FEA154BDE
:1034500009B44FEA144325EA0B4E24EA03480FF25D
:10346000042606EB132749083E785FEA320203FB85
:103470000667C7F5000707FB06F64FEA54374FEA21
:10348000D64606F1020607FB066CCCF1005C4FEA5B
:103490001C472CEA074C07FB06F40CFB06F504EB73
:1034A00015464FEA961634BF00204FF000404FEA11
:1034B000D13706FB07FC4FEA1C4C0CFB0BF7D21B69
:1034C00003FB0CF761EB07010CFB0EF7B0EB0740B9
:1034D00072EB17420CFB08F734BFA2EB0742B2EBCA
:1034E000074261EB17414FEA0C444FEA910706FB94
:1034F00007FC4FEA1C4C0CFB0BF7B0EBC74072EB20
:10350000573203FB0CF734BFA2EBC742B2EBC74202
:1035100061EB57310CFB0EF7B0EBC70072EB577243
:103520000CFB08F734BFA2EBC702B2EBC70261EB9A
:103530005771039F4FEA816141EA921104EBCC0479
:103540004FEAD1374FEA826206FB07FC42EA90124B
:103550004FEA80604FEA1C4C0CFB0BF7D21B03FBBD
:103560000CF761EB07010CFB0EF7B0EB074072EBB9
:1035700017420CFB08F734BFA2EB0742B2EB07423D
:1035800061EB17414FEA8C554FEA910704EB9C24FD
:1035900006FB07FC4FEA1C4C0CFB0BF7B0EBC740DB
:1035A00072EB573203FB0CF734BFA2EBC742B2EB0E
:1035B000C74261EB57310CFB0EF7B0EBC70072EB63
:1035C00057720CFB08F734BFA2EBC702B2EBC7027D
:1035D00061EB577115EB4C254FEA816141EA92117D
:1035E0004FEA82624FEAD13742EA901206FB07FCAB
:1035F00044F100044FEA80604FEA1C4C0CFB0BF7CF
:10360000D21B03FB0CF761EB07010CFB0EF7B0EBD1
:10361000074072EB17420CFB08F734BFA2EB0742DE
:10362000B2EB074261EB174115EB1C154FEA8131F4
:1036300041EA92414FEA823242EA90424FEA8030B8
:103640004FEA0C7644F1000448EA03434EEA0B4883
:103650004FF0000EB2EB080C71EB030724BF62467B
:1036600039464EEB0E0E4FF0000B00185241494107
:103670004BEB0B0BB2EB080C71EB03077BF1000B70
:1036800024BF624639464EEB0E0E4FF0000B001879
:10369000524149414BEB0B0BB2EB080C71EB0307AA
:1036A0007BF1000B24BF624639464EEB0E0E51EA09
:1036B000020718BF46F0010616EB0E7655F1000220
:1036C00054F1000103D5BDE88901BDE80088BDE8DB
:1036D0008901BDE80048B619524141EB0101A3F14F
:1036E0000103704780807F7E7D7C7B7A7978777656
:1036F00076757473727171706F6E6E6D6C6C6B6ACF
:103700006A6968686766666564646363626161606C
:10371000605F5F5E5E5D5D5C5C5B5B5A5A595958E9
:103720005857575656555555545453535252525153
:10373000515050504F4F4F4E4E4D4D4D4C4C4C4BA9
:103740004B4B4A4A4A4949494848484747474746F0
:10375000464645454544444444434343434242422C
:1037600042414141002B26D4770021D01CB54FEABD
:10377000370703B44FF010004FF010014FF0000076
:103780000FBCBDE810400BF1010BBBF1010F08BFEE
:103790005FEA170722BF12F1010211F101014FF098
:1037A000004143F1000300F0004043EA000070478D
:1037B000F9D35708DAE746EA064613F1400F4FEA15
:1037C00016461FDD13F1200FDFBF16430A46002106
:1037D00020335B42C8D0C3F1200746EA064602FA0E
:1037E00007F74FEA164646EA0706C3F1200722FA12
:1037F00003F201FA07F721FA03F14FF0000342EA5E
:103800000702B1E746EA020646EA06464FEA1646CE
:1038100046EA0106BCBF46EA0646360C4FF00003F6
:103820004FF000024FF000019EE72DE9C04893469B
:1038300030B491E8380007C831EA400C48BF34EA98
:10384000430C03D5FFF7F2FDFFF78CFFF0BCBDE89A
:1038500000882DE9C048934630B491E8380007C885
:1038600010F0804F08BF13F0804F03D100F005F82F
:10387000FFF778FFF0BCBDE8008820F07F4780EAC2
:10388000030023F07F4C07EB0C03A3F57C5300F0FF
:103890000040A3F1FE0392F0000F00F0B38095F01A
:1038A000000F00F077802DE901494FEA11404FEAFF
:1038B000144621EA004800FB06FC24EA064708FB00
:1038C00006F607FB08F800FB07F718EB06484CEB79
:1038D000164C4FEA124B18EB07484FEA15464CEBD3
:1038E000174022EA0B4E0BFB06FC25EA06470EFBAF
:1038F00006F607FB0EFE0BFB07F71EEB064E4CEB26
:10390000164C4FF000061EEB074E4CEB174B18EB16
:103910000B0840F1000018EB0E0B58EB000840F1CB
:1039200000008F1A4FF000013CBFC943661B14BF53
:10393000B5EB040C00213CBFC943F61B4FEA17440A
:103940004EEA8E0E27EA04454FEA1C4704FB076245
:103950002CEA074C05FB07F70CFB05F604FB0CFCF7
:1039600016EB074642EB174216EB0C4642EB1C42A5
:103970001BEB060658EB0202414146EA9E0601D5C2
:10398000BDE80189B619524141EB0101A3F10103E0
:10399000BDE801894FEA14454FEA114724EA05467C
:1039A00021EA074C05FB07F406FB07F70CFB06F1C1
:1039B00005FB0CFC11EB074144EB17444FEA12479F
:1039C00011EB0C4144EB1C4422EA074C05FB07F2C7
:1039D00006FB07F70CFB06F605FB0CFC16EB07468F
:1039E00042EB174216EB0C4642EB1C456A1854F1A9
:1039F000000148BF7047B619524141EB0101A3F1E4
:103A00000103704795F0000F37D04FEA11424FEA9B
:103A1000144721EA024624EA074C02FB07F106FBA1
:103A200007F70CFB06F402FB0CFC14EB074441EB1C
:103A300017414FEA154714EB0C4441EB1C4125EAB2
:103A4000074C02FB07F506FB07F70CFB06F602FB2B
:103A50000CFC16EB074645EB174516EB0C4645EB01
:103A60001C42121951F1000148BF7047B61952416A
:103A700041EB0101A3F1010370474FEA14454FEAFE
:103A8000114724EA054621EA074C05FB07F106FB2E
:103A900007F70CFB06F24FF0000605FB0CFC12EBDF
:103AA000074241EB174112EB0C4251EB1C4148BF5E
:103AB0007047921841EB0101A3F1010370474900DF
:103AC00050EAC12018BF04204A0D18BF40F0010081
:103AD00040F2FF72B2EB515F08BF40F002000128D4
:103AE00008BF0520704730380A2801D201207047EE
:103AF0000020704710B500290AD00878002807D0A8
:103B000005487844FFF7E0FB002801D0002010BDF5
:103B10000248784410BD0000F6040000EE040000E6
:103B200010B500290AD00878002807D00548784445
:103B3000FFF7CAFB002801D0002010BD02487844DE
:103B400010BD0000E6040000DE0400000808A0F537
:103B500000114FEA3101704743004FEAD30C4FEA9E
:103B60003C0C43401FBF40070CF1605113F0FE4F67
:103B700070471CF0006F03D100200CF0004170472B
:103B80000CF0004343EA507010B540EACC0000F05E
:103B90006AF900BF000000924FEA0001FFF7D6BFAC
:103BA0004FF000414FF00000A1F5002170470000E8
:103BB0004FF47F0C1CEAD0121EBF1CEAD11392EA0C
:103BC0000C0F93EA0C0F00F0858090EA010F48BFBC
:103BD00042F4807240F4000C41F400002CF07F416C
:103BE00020F07F4000B58142A2EB03020FF2081CD7
:103BF000ACEB504EC0F100009EF800E04FEA4E0ED4
:103C000000FB0EFC38BF49004FEA2C1C02F5FA02FB
:103C10000CFB0EF34FEACE1E4FEA112C4FEAC121E6
:103C20000EEB635E42EB22420EFB0CFC4FEA1C5390
:103C300000FB03114FEA112C4FEA01310EFB0CFC83
:103C40004FEADC4C00FB0C11C14228BF09184CEBB9
:103C500003335DF804EB10EB410143EBC250B2F5C6
:103C60007C0F38BF704729D512F0F00F1CBF00F150
:103C7000C04000F0004070470081828384858687C1
:103C800088898B8C8D8E8F919293959697999A9C1B
:103C90009D9FA0A2A3A5A7A8AAACAEB0B2B3B5B78A
:103CA000B9BCBEC0C2C5C7C9CCCED1D4D7D9DCDF60
:103CB000E2E6E9ECF0F3F7FAFE0000004FEA400C10
:103CC0000CF1807CBCF17E4F28BF7047B0F1C04042
:103CD00000F00FB990EA010F0CEAD11348BF42F48B
:103CE0008072624538BF634507D213F47F0F16D048
:103CF00080EA010000F00040704710B500F0B3F812
:103D0000097EFC3E00F005B880EA010000F00040AA
:103D1000704780EA010000F0004000F0EAB812F4B9
:103D20007F0F04BF0248704780EA010000F0E1B84D
:103D30000000C07F10F0004148BF4042B0FA80F35D
:103D400010FA03F2C3F19D030BD051EAC35101EB0A
:103D50001220530638BF704700F1010008BF20F061
:103D6000010070474FF47F0C1CEAD0121EBF1CEA02
:103D7000D11392EA0C0F93EA0C0F00F0478090EAFF
:103D8000010F48BF42F480724FF0004C4CEA002013
:103D90004CEA012102EB0302A0FB0113A2F5000291
:103DA000002918BF43F001035B0028BF4FEA33032B
:103DB00042EB22425FEA132C4CEBC2502EBFBCEB0D
:103DC000436FB2F57C0F70474FEA036CBCF1004FB4
:103DD00008BF20F00100B2F57C0F38BF70470BD54B
:103DE00082F0FF0212F5803FC8BF704700F1C0406B
:103DF000D8BF00F00040704700F5000C5FEA4C0CA3
:103E000048BF7047B0F1C04000F073B890EA010FAE
:103E10000CEAD11348BF42F48072624538BF634553
:103E200004D280EA010000F00040704710B500F0B5
:103E30001AF800BF8900013E00F007B800F009B889
:103E40005FEA410C5FEA1C6C08D080EA010000F0D8
:103E500050B85FEA400C5FEA1C6CF6D14FF00040AE
:103E6000A0F5800070470EF1020E2EF0030E5EF8F2
:103E7000044B244204D44FEA4102B2F17F4F11D8DF
:103E80004FEA4003B3F17F4F0CD80ED14FEAD07CFC
:103E9000B2F17F4F0CEB4C0C0CF1020C08BF4CEB59
:103EA000D17C04E04FF0080C01E04FEAD17C0CEB30
:103EB0004C0324FA03F404F00704B4F1040C06D212
:103EC0000EEB840CBDE810404CF0010C6047DFE8BD
:103ED0000CF0070802024FF00040A0F5800010BD72
:103EE0000846420018BFD2F1807288BF00F000403F
:103EF00010BDFF2141EAD050C0057047FEF771BFE9
:103F00000000000000000000303132333435363715
:103F1000383941424344454640305800303132330D
:103F2000343536373839616263646566403078000D
:103F30000400000800000000000000020001000072
:103F40001000000002400000000000A0000000007F
:103F500005400000000000C8000000000C40000008
:103F60000000409C00000000194000000020BCBE82
:103F70000000000034400000BFC91B8E0000000498
:103F8000B5400000504BCFD06607E2CF01000000E3
:103F90006C4100003E8251AADFEEA7340100000010
:103FA000D9420000DCB5A0E23A301F97FFFFFFFFC7
:103FB000B4450000FD25A0C8E9A3C14FFFFFFFFFE6
:103FC000FF3F00000000008000000000FF3F0000F5
:103FD00000000080000000002441000800000020D4
:103FE000300000006C01000854410008300000203F
:103FF00068070000880100081C0000004300000062
:10400000F8FFFFFF0C0000000E0000000F00000092
:104010002E0000001001000043000000F8FFFFFF29
:1040200000404040404040404040414141414140CB
:104030004040404040404040404040404040404080
:10404000400502020202020202020202020202020F
:104050000220202020202020202020020202020214
:10406000020290909090909010101010101010106C
:104070001010101010101010101010100202020278
:1040800002028888888888880808080808080808BC
:1040900008080808080808080808080802020202B8
:1040A00040000000000000000000000000000000D0
:1040B0000000000000000000000000000000000000
:1040C00000000000000000000000000000000000F0
:1040D00000000000000000000000000000000000E0
:1040E00000000000000000000000000000000000D0
:1040F00000000000000000000000000000000000C0
:1041000000000000000000000000000000000000AF
:10411000000000000000000000000000000000009F
:104120000000000000A24A0400000000000000009F
:104130000102030406070809000000000000000156
:10414000020304010203040607080902040608002A
:04415000000000006B
:0400000508000131BD
:00000001FF
